{
  "contractName": "DePayRouterV1PaymentEvent01",
  "abi": [
    {
      "anonymous": false,
      "inputs": [
        {
          "indexed": true,
          "internalType": "address",
          "name": "sender",
          "type": "address"
        },
        {
          "indexed": true,
          "internalType": "address payable",
          "name": "receiver",
          "type": "address"
        }
      ],
      "name": "Payment",
      "type": "event"
    },
    {
      "inputs": [],
      "name": "delegate",
      "outputs": [
        {
          "internalType": "bool",
          "name": "",
          "type": "bool"
        }
      ],
      "stateMutability": "view",
      "type": "function"
    },
    {
      "inputs": [
        {
          "internalType": "address[]",
          "name": "path",
          "type": "address[]"
        },
        {
          "internalType": "uint256[]",
          "name": "amounts",
          "type": "uint256[]"
        },
        {
          "internalType": "address[]",
          "name": "addresses",
          "type": "address[]"
        },
        {
          "internalType": "string[]",
          "name": "data",
          "type": "string[]"
        }
      ],
      "name": "execute",
      "outputs": [
        {
          "internalType": "bool",
          "name": "",
          "type": "bool"
        }
      ],
      "stateMutability": "payable",
      "type": "function"
    }
  ],
  "bytecode": "0x60a060405260001515608090151560f81b81525034801561001f57600080fd5b5060805160f81c6104d261003e600039600061019d01526104d26000f3fe6080604052600436106100295760003560e01c8063b86949591461002e578063c89e43611461005e575b600080fd5b610048600480360381019061004391906102db565b610089565b60405161005591906103bf565b60405180910390f35b34801561006a57600080fd5b5061007361019b565b60405161008091906103bf565b60405180910390f35b6000848460018787905061009d91906103da565b8181106100d3577f4e487b7100000000000000000000000000000000000000000000000000000000600052603260045260246000fd5b90506020020160208101906100e891906102b2565b73ffffffffffffffffffffffffffffffffffffffff1685856000818110610138577f4e487b7100000000000000000000000000000000000000000000000000000000600052603260045260246000fd5b905060200201602081019061014d91906102b2565b73ffffffffffffffffffffffffffffffffffffffff167f36c4359614c37ef31afa649625f064e2ca57f0faa6dbc8ca2548356e23d944bc60405160405180910390a398975050505050505050565b7f000000000000000000000000000000000000000000000000000000000000000081565b6000813590506101ce81610485565b92915050565b60008083601f8401126101e657600080fd5b8235905067ffffffffffffffff8111156101ff57600080fd5b60208301915083602082028301111561021757600080fd5b9250929050565b60008083601f84011261023057600080fd5b8235905067ffffffffffffffff81111561024957600080fd5b60208301915083602082028301111561026157600080fd5b9250929050565b60008083601f84011261027a57600080fd5b8235905067ffffffffffffffff81111561029357600080fd5b6020830191508360208202830111156102ab57600080fd5b9250929050565b6000602082840312156102c457600080fd5b60006102d2848285016101bf565b91505092915050565b6000806000806000806000806080898b0312156102f757600080fd5b600089013567ffffffffffffffff81111561031157600080fd5b61031d8b828c016101d4565b9850985050602089013567ffffffffffffffff81111561033c57600080fd5b6103488b828c01610268565b9650965050604089013567ffffffffffffffff81111561036757600080fd5b6103738b828c016101d4565b9450945050606089013567ffffffffffffffff81111561039257600080fd5b61039e8b828c0161021e565b92509250509295985092959890939650565b6103b981610420565b82525050565b60006020820190506103d460008301846103b0565b92915050565b60006103e58261044c565b91506103f08361044c565b92508282101561040357610402610456565b5b828203905092915050565b60006104198261042c565b9050919050565b60008115159050919050565b600073ffffffffffffffffffffffffffffffffffffffff82169050919050565b6000819050919050565b7f4e487b7100000000000000000000000000000000000000000000000000000000600052601160045260246000fd5b61048e8161040e565b811461049957600080fd5b5056fea264697066735822122035fdd409aa68c7e4ae514eea4dbbad3a69b7f830e5e1956192c5a8de68d12aab64736f6c63430008010033",
  "immutableReferences": {
    "79": [
      {
        "length": 32,
        "start": 413
      }
    ]
  },
  "source": "// SPDX-License-Identifier: MIT\n\npragma solidity 0.8.1;\npragma abicoder v2;\n\nimport \"@openzeppelin/contracts/token/ERC20/IERC20.sol\";\nimport './libraries/SafeToken.sol';\n\ncontract DePayRouterV1PaymentEvent01 {\n\n  // The payment event.\n  event Payment(\n    address indexed sender,\n    address payable indexed receiver\n  );\n\n  // Indicates that this plugin does not require delegate call\n  bool public immutable delegate = false;\n\n  function execute(\n    address[] calldata path,\n    uint[] calldata amounts,\n    address[] calldata addresses,\n    string[] calldata data\n  ) external payable returns(bool) {\n    emit Payment(addresses[0], payable(addresses[addresses.length-1]));\n  }\n}\n",
  "sourcePath": "/home/nonseodion/Desktop/sanwo-v1-core/contracts/SanwoV1PaymentEvent01.sol",
  "compiler": {
    "name": "solc",
    "version": "0.8.1+commit.df193b15.Emscripten.clang"
  },
  "schemaVersion": "3.3.4",
  "updatedAt": "2021-06-02T22:53:41.051Z",
  "devdoc": {
    "kind": "dev",
    "methods": {},
    "version": 1
  },
  "userdoc": {
    "kind": "user",
    "methods": {},
    "version": 1
  }
}