{
  "contractName": "DePayRouterV1",
  "abi": [
    {
      "inputs": [
        {
          "internalType": "address",
          "name": "_configuration",
          "type": "address"
        }
      ],
      "stateMutability": "nonpayable",
      "type": "constructor"
    },
    {
      "inputs": [],
      "name": "ETH",
      "outputs": [
        {
          "internalType": "address",
          "name": "",
          "type": "address"
        }
      ],
      "stateMutability": "view",
      "type": "function"
    },
    {
      "inputs": [],
      "name": "configuration",
      "outputs": [
        {
          "internalType": "contract SanwoV1Config",
          "name": "",
          "type": "address"
        }
      ],
      "stateMutability": "view",
      "type": "function"
    },
    {
      "stateMutability": "payable",
      "type": "receive"
    },
    {
      "inputs": [
        {
          "internalType": "address[]",
          "name": "path",
          "type": "address[]"
        },
        {
          "internalType": "uint256[]",
          "name": "amounts",
          "type": "uint256[]"
        },
        {
          "internalType": "address[]",
          "name": "addresses",
          "type": "address[]"
        },
        {
          "internalType": "address[]",
          "name": "plugins",
          "type": "address[]"
        },
        {
          "internalType": "string[]",
          "name": "data",
          "type": "string[]"
        }
      ],
      "name": "route",
      "outputs": [
        {
          "internalType": "bool",
          "name": "",
          "type": "bool"
        }
      ],
      "stateMutability": "payable",
      "type": "function"
    },
    {
      "inputs": [
        {
          "internalType": "address",
          "name": "pluginAddress",
          "type": "address"
        }
      ],
      "name": "isApproved",
      "outputs": [
        {
          "internalType": "bool",
          "name": "",
          "type": "bool"
        }
      ],
      "stateMutability": "view",
      "type": "function"
    },
    {
      "inputs": [
        {
          "internalType": "address",
          "name": "token",
          "type": "address"
        },
        {
          "internalType": "uint256",
          "name": "amount",
          "type": "uint256"
        }
      ],
      "name": "withdraw",
      "outputs": [
        {
          "internalType": "bool",
          "name": "",
          "type": "bool"
        }
      ],
      "stateMutability": "nonpayable",
      "type": "function"
    }
  ],
  "bytecode": "0x60a06040523480156200001157600080fd5b50604051620021773803806200217783398181016040528101906200003791906200008c565b8073ffffffffffffffffffffffffffffffffffffffff1660808173ffffffffffffffffffffffffffffffffffffffff1660601b815250505062000106565b6000815190506200008681620000ec565b92915050565b6000602082840312156200009f57600080fd5b6000620000af8482850162000075565b91505092915050565b6000620000c582620000cc565b9050919050565b600073ffffffffffffffffffffffffffffffffffffffff82169050919050565b620000f781620000b8565b81146200010357600080fd5b50565b60805160601c61202f620001486000396000818161016e015281816103500152818161048f0152818161053c01528181610604015261087b015261202f6000f3fe60806040526004361061004e5760003560e01c8063673448dd1461005a5780636c70bee9146100975780638322fff2146100c2578063b7d29a35146100ed578063f3fef3a31461011d57610055565b3661005557005b600080fd5b34801561006657600080fd5b50610081600480360381019061007c91906113a6565b61015a565b60405161008e91906119d9565b60405180910390f35b3480156100a357600080fd5b506100ac61016c565b6040516100b991906119f4565b60405180910390f35b3480156100ce57600080fd5b506100d7610190565b6040516100e491906118f5565b60405180910390f35b61010760048036038101906101029190611434565b6101a8565b60405161011491906119d9565b60405180910390f35b34801561012957600080fd5b50610144600480360381019061013f91906113f8565b610335565b60405161015191906119d9565b60405180910390f35b6000610165826105e9565b9050919050565b7f000000000000000000000000000000000000000000000000000000000000000081565b73eeeeeeeeeeeeeeeeeeeeeeeeeeeeeeeeeeeeeeee81565b6000806102108c8c60018f8f90506101c09190611c43565b8181106101f6577f4e487b7100000000000000000000000000000000000000000000000000000000600052603260045260246000fd5b905060200201602081019061020b91906113a6565b6106ca565b90506102aa8c8c600081811061024f577f4e487b7100000000000000000000000000000000000000000000000000000000600052603260045260246000fd5b905060200201602081019061026491906113a6565b8b8b600081811061029e577f4e487b7100000000000000000000000000000000000000000000000000000000600052603260045260246000fd5b90506020020135610733565b6102bc8c8c8c8c8c8c8c8c8c8c6107d4565b6103228c8c60018f8f90506102d19190611c43565b818110610307577f4e487b7100000000000000000000000000000000000000000000000000000000600052603260045260246000fd5b905060200201602081019061031c91906113a6565b82610c8b565b60019150509a9950505050505050505050565b60003373ffffffffffffffffffffffffffffffffffffffff167f000000000000000000000000000000000000000000000000000000000000000073ffffffffffffffffffffffffffffffffffffffff16638da5cb5b6040518163ffffffff1660e01b815260040160206040518083038186803b1580156103b457600080fd5b505afa1580156103c8573d6000803e3d6000fd5b505050506040513d601f19601f820116820180604052508101906103ec91906113cf565b73ffffffffffffffffffffffffffffffffffffffff1614610442576040517f08c379a000000000000000000000000000000000000000000000000000000000815260040161043990611ab1565b60405180910390fd5b73eeeeeeeeeeeeeeeeeeeeeeeeeeeeeeeeeeeeeeee73ffffffffffffffffffffffffffffffffffffffff168373ffffffffffffffffffffffffffffffffffffffff161415610536576105317f000000000000000000000000000000000000000000000000000000000000000073ffffffffffffffffffffffffffffffffffffffff16638da5cb5b6040518163ffffffff1660e01b815260040160206040518083038186803b1580156104f357600080fd5b505afa158015610507573d6000803e3d6000fd5b505050506040513d601f19601f8201168201806040525081019061052b91906113cf565b83610cda565b6105df565b6105de837f000000000000000000000000000000000000000000000000000000000000000073ffffffffffffffffffffffffffffffffffffffff16638da5cb5b6040518163ffffffff1660e01b815260040160206040518083038186803b1580156105a057600080fd5b505afa1580156105b4573d6000803e3d6000fd5b505050506040513d601f19601f820116820180604052508101906105d891906113cf565b84610e00565b5b6001905092915050565b60008073ffffffffffffffffffffffffffffffffffffffff167f000000000000000000000000000000000000000000000000000000000000000073ffffffffffffffffffffffffffffffffffffffff16637445e0c3846040518263ffffffff1660e01b815260040161065b91906118f5565b60206040518083038186803b15801561067357600080fd5b505afa158015610687573d6000803e3d6000fd5b505050506040513d601f19601f820116820180604052508101906106ab91906113cf565b73ffffffffffffffffffffffffffffffffffffffff1614159050919050565b60006106d582610e86565b905073eeeeeeeeeeeeeeeeeeeeeeeeeeeeeeeeeeeeeeee73ffffffffffffffffffffffffffffffffffffffff168273ffffffffffffffffffffffffffffffffffffffff16141561072e57348161072b9190611c43565b90505b919050565b73eeeeeeeeeeeeeeeeeeeeeeeeeeeeeeeeeeeeeeee73ffffffffffffffffffffffffffffffffffffffff168273ffffffffffffffffffffffffffffffffffffffff1614156107c357803410156107be576040517f08c379a00000000000000000000000000000000000000000000000000000000081526004016107b590611a31565b60405180910390fd5b6107d0565b6107cf82333084610f69565b5b5050565b60005b84849050811015610c7e5761083885858381811061081e577f4e487b7100000000000000000000000000000000000000000000000000000000600052603260045260246000fd5b905060200201602081019061083391906113a6565b6105e9565b610877576040517f08c379a000000000000000000000000000000000000000000000000000000000815260040161086e90611ad1565b60405180910390fd5b60007f000000000000000000000000000000000000000000000000000000000000000073ffffffffffffffffffffffffffffffffffffffff16637445e0c38787858181106108ee577f4e487b7100000000000000000000000000000000000000000000000000000000600052603260045260246000fd5b905060200201602081019061090391906113a6565b6040518263ffffffff1660e01b815260040161091f91906118f5565b60206040518083038186803b15801561093757600080fd5b505afa15801561094b573d6000803e3d6000fd5b505050506040513d601f19601f8201168201806040525081019061096f91906113cf565b90508073ffffffffffffffffffffffffffffffffffffffff1663c89e43616040518163ffffffff1660e01b8152600401602060405180830381600087803b1580156109b957600080fd5b505af11580156109cd573d6000803e3d6000fd5b505050506040513d601f19601f820116820180604052508101906109f19190611539565b15610b31576000808273ffffffffffffffffffffffffffffffffffffffff1663b869495960e01b8f8f8f8f8f8f8d8d604051602401610a37989796959493929190611970565b604051602081830303815290604052907bffffffffffffffffffffffffffffffffffffffffffffffffffffffff19166020820180517bffffffffffffffffffffffffffffffffffffffffffffffffffffffff8381831617835250505050604051610aa191906118de565b600060405180830381855af49150503d8060008114610adc576040519150601f19603f3d011682016040523d82523d6000602084013e610ae1565b606091505b5091509150818190610b29576040517f08c379a0000000000000000000000000000000000000000000000000000000008152600401610b209190611a0f565b60405180910390fd5b505050610c6a565b6000808273ffffffffffffffffffffffffffffffffffffffff1663b869495960e01b8f8f8f8f8f8f8d8d604051602401610b72989796959493929190611970565b604051602081830303815290604052907bffffffffffffffffffffffffffffffffffffffffffffffffffffffff19166020820180517bffffffffffffffffffffffffffffffffffffffffffffffffffffffff8381831617835250505050604051610bdc91906118de565b6000604051808303816000865af19150503d8060008114610c19576040519150601f19603f3d011682016040523d82523d6000602084013e610c1e565b606091505b5091509150818190610c66576040517f08c379a0000000000000000000000000000000000000000000000000000000008152600401610c5d9190611a0f565b60405180910390fd5b5050505b508080610c7690611d25565b9150506107d7565b5050505050505050505050565b80610c9583610e86565b1015610cd6576040517f08c379a0000000000000000000000000000000000000000000000000000000008152600401610ccd90611a51565b60405180910390fd5b5050565b60008273ffffffffffffffffffffffffffffffffffffffff1682600067ffffffffffffffff811115610d35577f4e487b7100000000000000000000000000000000000000000000000000000000600052604160045260246000fd5b6040519080825280601f01601f191660200182016040528015610d675781602001600182028036833780820191505090505b50604051610d7591906118de565b60006040518083038185875af1925050503d8060008114610db2576040519150601f19603f3d011682016040523d82523d6000602084013e610db7565b606091505b5050905080610dfb576040517f08c379a0000000000000000000000000000000000000000000000000000000008152600401610df290611a91565b60405180910390fd5b505050565b610e818363a9059cbb60e01b8484604051602401610e1f929190611947565b604051602081830303815290604052907bffffffffffffffffffffffffffffffffffffffffffffffffffffffff19166020820180517bffffffffffffffffffffffffffffffffffffffffffffffffffffffff8381831617835250505050610ff2565b505050565b600073eeeeeeeeeeeeeeeeeeeeeeeeeeeeeeeeeeeeeeee73ffffffffffffffffffffffffffffffffffffffff168273ffffffffffffffffffffffffffffffffffffffff161415610ed857479050610f64565b8173ffffffffffffffffffffffffffffffffffffffff166370a08231306040518263ffffffff1660e01b8152600401610f1191906118f5565b60206040518083038186803b158015610f2957600080fd5b505afa158015610f3d573d6000803e3d6000fd5b505050506040513d601f19601f82011682018060405250810190610f619190611562565b90505b919050565b610fec846323b872dd60e01b858585604051602401610f8a93929190611910565b604051602081830303815290604052907bffffffffffffffffffffffffffffffffffffffffffffffffffffffff19166020820180517bffffffffffffffffffffffffffffffffffffffffffffffffffffffff8381831617835250505050610ff2565b50505050565b6000611054826040518060400160405280602081526020017f5361666545524332303a206c6f772d6c6576656c2063616c6c206661696c65648152508573ffffffffffffffffffffffffffffffffffffffff166110b99092919063ffffffff16565b90506000815111156110b457808060200190518101906110749190611539565b6110b3576040517f08c379a00000000000000000000000000000000000000000000000000000000081526004016110aa90611b11565b60405180910390fd5b5b505050565b60606110c884846000856110d1565b90509392505050565b606082471015611116576040517f08c379a000000000000000000000000000000000000000000000000000000000815260040161110d90611a71565b60405180910390fd5b61111f856111e5565b61115e576040517f08c379a000000000000000000000000000000000000000000000000000000000815260040161115590611af1565b60405180910390fd5b6000808673ffffffffffffffffffffffffffffffffffffffff16858760405161118791906118de565b60006040518083038185875af1925050503d80600081146111c4576040519150601f19603f3d011682016040523d82523d6000602084013e6111c9565b606091505b50915091506111d98282866111f8565b92505050949350505050565b600080823b905060008111915050919050565b6060831561120857829050611258565b60008351111561121b5782518084602001fd5b816040517f08c379a000000000000000000000000000000000000000000000000000000000815260040161124f9190611a0f565b60405180910390fd5b9392505050565b60008135905061126e81611fb4565b92915050565b60008151905061128381611fb4565b92915050565b60008083601f84011261129b57600080fd5b8235905067ffffffffffffffff8111156112b457600080fd5b6020830191508360208202830111156112cc57600080fd5b9250929050565b60008083601f8401126112e557600080fd5b8235905067ffffffffffffffff8111156112fe57600080fd5b60208301915083602082028301111561131657600080fd5b9250929050565b60008083601f84011261132f57600080fd5b8235905067ffffffffffffffff81111561134857600080fd5b60208301915083602082028301111561136057600080fd5b9250929050565b60008151905061137681611fcb565b92915050565b60008135905061138b81611fe2565b92915050565b6000815190506113a081611fe2565b92915050565b6000602082840312156113b857600080fd5b60006113c68482850161125f565b91505092915050565b6000602082840312156113e157600080fd5b60006113ef84828501611274565b91505092915050565b6000806040838503121561140b57600080fd5b60006114198582860161125f565b925050602061142a8582860161137c565b9150509250929050565b60008060008060008060008060008060a08b8d03121561145357600080fd5b60008b013567ffffffffffffffff81111561146d57600080fd5b6114798d828e01611289565b9a509a505060208b013567ffffffffffffffff81111561149857600080fd5b6114a48d828e0161131d565b985098505060408b013567ffffffffffffffff8111156114c357600080fd5b6114cf8d828e01611289565b965096505060608b013567ffffffffffffffff8111156114ee57600080fd5b6114fa8d828e01611289565b945094505060808b013567ffffffffffffffff81111561151957600080fd5b6115258d828e016112d3565b92509250509295989b9194979a5092959850565b60006020828403121561154b57600080fd5b600061155984828501611367565b91505092915050565b60006020828403121561157457600080fd5b600061158284828501611391565b91505092915050565b600061159783836115b9565b60208301905092915050565b60006115b0848484611751565b90509392505050565b6115c281611c77565b82525050565b6115d181611c77565b82525050565b60006115e38385611b75565b93506115ee82611b31565b8060005b85811015611627576116048284611bd5565b61160e888261158b565b975061161983611b5b565b9250506001810190506115f2565b5085925050509392505050565b60006116408385611b86565b93508360208402850161165284611b3b565b8060005b8781101561169857848403895261166d8284611bec565b6116788682846115a3565b955061168384611b68565b935060208b019a505050600181019050611656565b50829750879450505050509392505050565b60006116b68385611b97565b93507f07ffffffffffffffffffffffffffffffffffffffffffffffffffffffffffffff8311156116e557600080fd5b6020830292506116f6838584611ce3565b82840190509392505050565b61170b81611c89565b82525050565b600061171c82611b45565b6117268185611ba8565b9350611736818560208601611cf2565b80840191505092915050565b61174b81611cbf565b82525050565b600061175d8385611bb3565b935061176a838584611ce3565b61177383611d9d565b840190509392505050565b600061178982611b50565b6117938185611bc4565b93506117a3818560208601611cf2565b6117ac81611d9d565b840191505092915050565b60006117c4602883611bc4565b91506117cf82611dae565b604082019050919050565b60006117e7602a83611bc4565b91506117f282611dfd565b604082019050919050565b600061180a602683611bc4565b915061181582611e4c565b604082019050919050565b600061182d602c83611bc4565b915061183882611e9b565b604082019050919050565b6000611850602083611bc4565b915061185b82611eea565b602082019050919050565b6000611873601b83611bc4565b915061187e82611f13565b602082019050919050565b6000611896601d83611bc4565b91506118a182611f3c565b602082019050919050565b60006118b9602a83611bc4565b91506118c482611f65565b604082019050919050565b6118d881611cb5565b82525050565b60006118ea8284611711565b915081905092915050565b600060208201905061190a60008301846115c8565b92915050565b600060608201905061192560008301866115c8565b61193260208301856115c8565b61193f60408301846118cf565b949350505050565b600060408201905061195c60008301856115c8565b61196960208301846118cf565b9392505050565b6000608082019050818103600083015261198b818a8c6115d7565b905081810360208301526119a081888a6116aa565b905081810360408301526119b58186886115d7565b905081810360608301526119ca818486611634565b90509998505050505050505050565b60006020820190506119ee6000830184611702565b92915050565b6000602082019050611a096000830184611742565b92915050565b60006020820190508181036000830152611a29818461177e565b905092915050565b60006020820190508181036000830152611a4a816117b7565b9050919050565b60006020820190508181036000830152611a6a816117da565b9050919050565b60006020820190508181036000830152611a8a816117fd565b9050919050565b60006020820190508181036000830152611aaa81611820565b9050919050565b60006020820190508181036000830152611aca81611843565b9050919050565b60006020820190508181036000830152611aea81611866565b9050919050565b60006020820190508181036000830152611b0a81611889565b9050919050565b60006020820190508181036000830152611b2a816118ac565b9050919050565b6000819050919050565b6000819050919050565b600081519050919050565b600081519050919050565b6000602082019050919050565b6000602082019050919050565b600082825260208201905092915050565b600082825260208201905092915050565b600082825260208201905092915050565b600081905092915050565b600082825260208201905092915050565b600082825260208201905092915050565b6000611be4602084018461125f565b905092915050565b60008083356001602003843603038112611c0557600080fd5b83810192508235915060208301925067ffffffffffffffff821115611c2957600080fd5b600182023603841315611c3b57600080fd5b509250929050565b6000611c4e82611cb5565b9150611c5983611cb5565b925082821015611c6c57611c6b611d6e565b5b828203905092915050565b6000611c8282611c95565b9050919050565b60008115159050919050565b600073ffffffffffffffffffffffffffffffffffffffff82169050919050565b6000819050919050565b6000611cca82611cd1565b9050919050565b6000611cdc82611c95565b9050919050565b82818337600083830152505050565b60005b83811015611d10578082015181840152602081019050611cf5565b83811115611d1f576000848401525b50505050565b6000611d3082611cb5565b91507fffffffffffffffffffffffffffffffffffffffffffffffffffffffffffffffff821415611d6357611d62611d6e565b5b600182019050919050565b7f4e487b7100000000000000000000000000000000000000000000000000000000600052601160045260246000fd5b6000601f19601f8301169050919050565b7f44655061793a20496e73756666696369656e742045544820616d6f756e74207060008201527f6179656420696e21000000000000000000000000000000000000000000000000602082015250565b7f44655061793a20496e73756666696369656e742062616c616e6365206166746560008201527f72207061796d656e742100000000000000000000000000000000000000000000602082015250565b7f416464726573733a20696e73756666696369656e742062616c616e636520666f60008201527f722063616c6c0000000000000000000000000000000000000000000000000000602082015250565b7f48656c7065723a3a736166655472616e736665724554483a204554482074726160008201527f6e73666572206661696c65640000000000000000000000000000000000000000602082015250565b7f4f776e61626c653a2063616c6c6572206973206e6f7420746865206f776e6572600082015250565b7f44655061793a20506c7567696e206e6f7420617070726f766564210000000000600082015250565b7f416464726573733a2063616c6c20746f206e6f6e2d636f6e7472616374000000600082015250565b7f5361666545524332303a204552433230206f7065726174696f6e20646964206e60008201527f6f74207375636365656400000000000000000000000000000000000000000000602082015250565b611fbd81611c77565b8114611fc857600080fd5b50565b611fd481611c89565b8114611fdf57600080fd5b50565b611feb81611cb5565b8114611ff657600080fd5b5056fea2646970667358221220d8504f40219f2bb55d1a041523e19842fa89002512a991e024e35ab1dc36521d64736f6c63430008010033",
  "immutableReferences": {
    "217": [
      {
        "length": 32,
        "start": 366
      },
      {
        "length": 32,
        "start": 848
      },
      {
        "length": 32,
        "start": 1167
      },
      {
        "length": 32,
        "start": 1340
      },
      {
        "length": 32,
        "start": 1540
      },
      {
        "length": 32,
        "start": 2171
      }
    ]
  },
  "source": "// SPDX-License-Identifier: MIT\n\npragma solidity 0.8.1;\npragma abicoder v2;\n\nimport \"@openzeppelin/contracts/token/ERC20/IERC20.sol\";\nimport \"@openzeppelin/contracts/token/ERC20/utils/SafeERC20.sol\";\nimport './interfaces/ISanwoV1Plugin.sol';\nimport './libraries/SafeToken.sol';\nimport './SanwoV1Config.sol';\n\ncontract DePayRouterV1 {\n  \n  // Address representating ETH (e.g. in payment routing paths)\n  address public constant ETH = 0xEeeeeEeeeEeEeeEeEeEeeEEEeeeeEeeeeeeeEEeE;\n\n  // Instance of ISanwoV1Config\n  SanwoV1Config public immutable configuration;\n\n  constructor (\n    address _configuration\n  ) {\n    configuration = SanwoV1Config(_configuration);\n  }\n\n  // Proxy modifier to ISanwoV1Config\n  modifier onlyOwner() {\n    require(configuration.owner() == msg.sender, \"Ownable: caller is not the owner\");\n    _;\n  }\n\n  receive() external payable {\n    // Accepts ETH payments which is require in order\n    // to swap from and to ETH\n    // especially unwrapping WETH as part of token swaps.\n  }\n\n  // The main function to route transactions.\n  function route(\n    // The path of the token conversion.\n    address[] calldata path,\n    // Amounts passed to proccessors:\n    // e.g. [amountIn, amountOut, deadline]\n    uint[] calldata amounts,\n    // Addresses passed to plugins:\n    // e.g. [receiver]\n    address[] calldata addresses,\n    // List and order of plugins to be executed for this payment:\n    // e.g. [Uniswap,paymentPlugin] to swap and pay\n    address[] calldata plugins,\n    // Data passed to plugins:\n    // e.g. [\"signatureOfSmartContractFunction(address,uint)\"] receiving the payment\n    string[] calldata data\n  ) external payable returns(bool) {\n    uint balanceBefore = _balanceBefore(path[path.length-1]);\n    _ensureTransferIn(path[0], amounts[0]);\n    _execute(path, amounts, addresses, plugins, data);\n    _ensureBalance(path[path.length-1], balanceBefore);\n    return true;\n  }\n\n  // Returns the balance for a token (or ETH) before the payment is executed.\n  // In case of ETH we need to deduct what has been payed in as part of the transaction itself.\n  function _balanceBefore(address token) private returns (uint balance) {\n    balance = _balance(token);\n    if(token == ETH) { balance -= msg.value; }\n  }\n\n  // This makes sure that the sender has payed in the token (or ETH)\n  // required to perform the payment.\n  function _ensureTransferIn(address tokenIn, uint amountIn) private {\n    if(tokenIn == ETH) { \n      require(msg.value >= amountIn, 'DePay: Insufficient ETH amount payed in!'); \n    } else {\n      SafeERC20.safeTransferFrom(IERC20(tokenIn), msg.sender, address(this), amountIn);\n    }\n  }\n\n  // Executes plugins in the given order.\n  function _execute(\n    address[] calldata path,\n    uint[] calldata amounts,\n    address[] calldata addresses,\n    address[] calldata plugins,\n    string[] calldata data\n  ) internal {\n    for (uint i = 0; i < plugins.length; i++) {\n      require(_isApproved(plugins[i]), 'DePay: Plugin not approved!');\n      \n      ISanwoV1Plugin plugin = ISanwoV1Plugin(configuration.approvedPlugins(plugins[i]));\n\n      if(plugin.delegate()) {\n        (bool success, bytes memory returnData) = address(plugin).delegatecall(abi.encodeWithSelector(\n            plugin.execute.selector, path, amounts, addresses, data\n        ));\n        require(success, string(returnData));\n      } else {\n        (bool success, bytes memory returnData) = address(plugin).call(abi.encodeWithSelector(\n            plugin.execute.selector, path, amounts, addresses, data\n        ));\n        require(success, string(returnData));\n      }\n    }\n  }\n\n  // This makes sure that the balance after the payment not less than before.\n  // Prevents draining of the contract.\n  function _ensureBalance(address tokenOut, uint balanceBefore) private view {\n    require(_balance(tokenOut) >= balanceBefore, 'DePay: Insufficient balance after payment!');\n  }\n\n  // Returns the balance of the payment plugin contract for a token (or ETH).\n  function _balance(address token) private view returns(uint) {\n    if(token == ETH) {\n        return address(this).balance;\n    } else {\n        return IERC20(token).balanceOf(address(this));\n      }\n  }\n\n  // Function to check if a plugin address is approved.\n  function isApproved(\n    address pluginAddress\n  ) external view returns(bool){\n    return _isApproved(pluginAddress);\n  }\n\n  // Internal function to check if a plugin address is approved.\n  function _isApproved(\n    address pluginAddress\n  ) internal view returns(bool) {\n    return (configuration.approvedPlugins(pluginAddress) != address(0));\n  }\n  \n  // Allows to withdraw accidentally sent ETH or tokens.\n  function withdraw(\n    address token,\n    uint amount\n  ) external onlyOwner returns(bool) {\n    if(token == ETH) {\n      SafeToken.safeTransferETH(payable(configuration.owner()), amount);\n    } else {\n      SafeERC20.safeTransfer(IERC20(token), payable(configuration.owner()), amount);\n    }\n    return true;\n  }\n}\n",
  "sourcePath": "/home/nonseodion/Desktop/sanwo-v1-core/contracts/SanwoV1Router.sol",
  "compiler": {
    "name": "solc",
    "version": "0.8.1+commit.df193b15.Emscripten.clang"
  },
  "schemaVersion": "3.3.4",
  "updatedAt": "2021-06-02T22:53:41.061Z",
  "devdoc": {
    "kind": "dev",
    "methods": {},
    "version": 1
  },
  "userdoc": {
    "kind": "user",
    "methods": {},
    "version": 1
  }
}