{
  "contractName": "SanwoV1Config",
  "abi": [
    {
      "anonymous": false,
      "inputs": [
        {
          "indexed": true,
          "internalType": "address",
          "name": "previousOwner",
          "type": "address"
        },
        {
          "indexed": true,
          "internalType": "address",
          "name": "newOwner",
          "type": "address"
        }
      ],
      "name": "OwnershipTransferred",
      "type": "event"
    },
    {
      "anonymous": false,
      "inputs": [
        {
          "indexed": true,
          "internalType": "address",
          "name": "pluginAddress",
          "type": "address"
        }
      ],
      "name": "PluginApproved",
      "type": "event"
    },
    {
      "anonymous": false,
      "inputs": [
        {
          "indexed": true,
          "internalType": "address",
          "name": "pluginAddress",
          "type": "address"
        }
      ],
      "name": "PluginDisapproved",
      "type": "event"
    },
    {
      "inputs": [
        {
          "internalType": "address",
          "name": "",
          "type": "address"
        }
      ],
      "name": "approvedPlugins",
      "outputs": [
        {
          "internalType": "address",
          "name": "",
          "type": "address"
        }
      ],
      "stateMutability": "view",
      "type": "function"
    },
    {
      "inputs": [],
      "name": "owner",
      "outputs": [
        {
          "internalType": "address",
          "name": "",
          "type": "address"
        }
      ],
      "stateMutability": "view",
      "type": "function"
    },
    {
      "inputs": [],
      "name": "renounceOwnership",
      "outputs": [],
      "stateMutability": "nonpayable",
      "type": "function"
    },
    {
      "inputs": [
        {
          "internalType": "address",
          "name": "newOwner",
          "type": "address"
        }
      ],
      "name": "transferOwnership",
      "outputs": [],
      "stateMutability": "nonpayable",
      "type": "function"
    },
    {
      "inputs": [
        {
          "internalType": "address",
          "name": "plugin",
          "type": "address"
        }
      ],
      "name": "approvePlugin",
      "outputs": [
        {
          "internalType": "bool",
          "name": "",
          "type": "bool"
        }
      ],
      "stateMutability": "nonpayable",
      "type": "function"
    },
    {
      "inputs": [
        {
          "internalType": "address",
          "name": "plugin",
          "type": "address"
        }
      ],
      "name": "disapprovePlugin",
      "outputs": [
        {
          "internalType": "bool",
          "name": "",
          "type": "bool"
        }
      ],
      "stateMutability": "nonpayable",
      "type": "function"
    }
  ],
  "bytecode": "0x608060405234801561001057600080fd5b5060006100216100c460201b60201c565b9050806000806101000a81548173ffffffffffffffffffffffffffffffffffffffff021916908373ffffffffffffffffffffffffffffffffffffffff1602179055508073ffffffffffffffffffffffffffffffffffffffff16600073ffffffffffffffffffffffffffffffffffffffff167f8be0079c531659141344cd1fd0a4f28419497f9722a3daafe3b4186f6b6457e060405160405180910390a3506100cc565b600033905090565b61093f806100db6000396000f3fe608060405234801561001057600080fd5b50600436106100625760003560e01c80632c2a5fb91461006757806338c74dd914610097578063715018a6146100c75780637445e0c3146100d15780638da5cb5b14610101578063f2fde38b1461011f575b600080fd5b610081600480360381019061007c9190610728565b61013b565b60405161008e91906107d0565b60405180910390f35b6100b160048036038101906100ac9190610728565b610284565b6040516100be91906107d0565b60405180910390f35b6100cf6103cc565b005b6100eb60048036038101906100e69190610728565b610506565b6040516100f891906107b5565b60405180910390f35b610109610539565b60405161011691906107b5565b60405180910390f35b61013960048036038101906101349190610728565b610562565b005b600061014561070b565b73ffffffffffffffffffffffffffffffffffffffff16610163610539565b73ffffffffffffffffffffffffffffffffffffffff16146101b9576040517f08c379a00000000000000000000000000000000000000000000000000000000081526004016101b09061080b565b60405180910390fd5b6000600160008473ffffffffffffffffffffffffffffffffffffffff1673ffffffffffffffffffffffffffffffffffffffff16815260200190815260200160002060006101000a81548173ffffffffffffffffffffffffffffffffffffffff021916908373ffffffffffffffffffffffffffffffffffffffff1602179055508173ffffffffffffffffffffffffffffffffffffffff167f15d23561abebaec7560019ff339247aa6abb29055f3af618edd661fbcbd4f79360405160405180910390a260019050919050565b600061028e61070b565b73ffffffffffffffffffffffffffffffffffffffff166102ac610539565b73ffffffffffffffffffffffffffffffffffffffff1614610302576040517f08c379a00000000000000000000000000000000000000000000000000000000081526004016102f99061080b565b60405180910390fd5b81600160008473ffffffffffffffffffffffffffffffffffffffff1673ffffffffffffffffffffffffffffffffffffffff16815260200190815260200160002060006101000a81548173ffffffffffffffffffffffffffffffffffffffff021916908373ffffffffffffffffffffffffffffffffffffffff1602179055508173ffffffffffffffffffffffffffffffffffffffff167f69e13d18ab160f517914aa34f2f6f25c80a32ecfbc1d08367becdf42b1ed226f60405160405180910390a260019050919050565b6103d461070b565b73ffffffffffffffffffffffffffffffffffffffff166103f2610539565b73ffffffffffffffffffffffffffffffffffffffff1614610448576040517f08c379a000000000000000000000000000000000000000000000000000000000815260040161043f9061080b565b60405180910390fd5b600073ffffffffffffffffffffffffffffffffffffffff1660008054906101000a900473ffffffffffffffffffffffffffffffffffffffff1673ffffffffffffffffffffffffffffffffffffffff167f8be0079c531659141344cd1fd0a4f28419497f9722a3daafe3b4186f6b6457e060405160405180910390a360008060006101000a81548173ffffffffffffffffffffffffffffffffffffffff021916908373ffffffffffffffffffffffffffffffffffffffff160217905550565b60016020528060005260406000206000915054906101000a900473ffffffffffffffffffffffffffffffffffffffff1681565b60008060009054906101000a900473ffffffffffffffffffffffffffffffffffffffff16905090565b61056a61070b565b73ffffffffffffffffffffffffffffffffffffffff16610588610539565b73ffffffffffffffffffffffffffffffffffffffff16146105de576040517f08c379a00000000000000000000000000000000000000000000000000000000081526004016105d59061080b565b60405180910390fd5b600073ffffffffffffffffffffffffffffffffffffffff168173ffffffffffffffffffffffffffffffffffffffff16141561064e576040517f08c379a0000000000000000000000000000000000000000000000000000000008152600401610645906107eb565b60405180910390fd5b8073ffffffffffffffffffffffffffffffffffffffff1660008054906101000a900473ffffffffffffffffffffffffffffffffffffffff1673ffffffffffffffffffffffffffffffffffffffff167f8be0079c531659141344cd1fd0a4f28419497f9722a3daafe3b4186f6b6457e060405160405180910390a3806000806101000a81548173ffffffffffffffffffffffffffffffffffffffff021916908373ffffffffffffffffffffffffffffffffffffffff16021790555050565b600033905090565b600081359050610722816108f2565b92915050565b60006020828403121561073a57600080fd5b600061074884828501610713565b91505092915050565b61075a8161083c565b82525050565b6107698161084e565b82525050565b600061077c60268361082b565b91506107878261087a565b604082019050919050565b600061079f60208361082b565b91506107aa826108c9565b602082019050919050565b60006020820190506107ca6000830184610751565b92915050565b60006020820190506107e56000830184610760565b92915050565b600060208201905081810360008301526108048161076f565b9050919050565b6000602082019050818103600083015261082481610792565b9050919050565b600082825260208201905092915050565b60006108478261085a565b9050919050565b60008115159050919050565b600073ffffffffffffffffffffffffffffffffffffffff82169050919050565b7f4f776e61626c653a206e6577206f776e657220697320746865207a65726f206160008201527f6464726573730000000000000000000000000000000000000000000000000000602082015250565b7f4f776e61626c653a2063616c6c6572206973206e6f7420746865206f776e6572600082015250565b6108fb8161083c565b811461090657600080fd5b5056fea2646970667358221220bc40b4035e89cd9f7a258575e0611b368f5f857a32343936c4f5a6d2cf66eb1864736f6c63430008010033",
  "immutableReferences": {},
  "source": "// SPDX-License-Identifier: MIT\n\npragma solidity 0.8.1;\npragma abicoder v2;\n\nimport \"@openzeppelin/contracts/access/Ownable.sol\";\n\n// Prevents unwanted access to configuration in DePayRouterV1\n// Potentially occuring through delegatecall(ing) plugins.\ncontract SanwoV1Config is Ownable {\n  \n  // List of approved plugins. Use approvePlugin to add new plugins.\n  mapping (address => address) public approvedPlugins;\n\n  // Approves the provided plugin.\n  function approvePlugin(address plugin) external onlyOwner returns(bool) {\n    approvedPlugins[plugin] = plugin;\n    emit PluginApproved(plugin);\n    return true;\n  }\n\n  // Event to emit newly approved plugin.\n  event PluginApproved(\n    address indexed pluginAddress\n  );\n\n  // Disapproves the provided plugin.\n  function disapprovePlugin(address plugin) external onlyOwner returns(bool) {\n    approvedPlugins[plugin] = address(0);\n    emit PluginDisapproved(plugin);\n    return true;\n  }\n\n  // Event to emit disapproved plugin.\n  event PluginDisapproved(\n    address indexed pluginAddress\n  );\n}\n",
  "sourcePath": "/home/nonseodion/Desktop/sanwo-v1-core/contracts/SanwoV1Config.sol",
  "compiler": {
    "name": "solc",
    "version": "0.8.1+commit.df193b15.Emscripten.clang"
  },
  "schemaVersion": "3.3.4",
  "updatedAt": "2021-06-02T22:53:41.048Z",
  "devdoc": {
    "kind": "dev",
    "methods": {
      "owner()": {
        "details": "Returns the address of the current owner."
      },
      "renounceOwnership()": {
        "details": "Leaves the contract without owner. It will not be possible to call `onlyOwner` functions anymore. Can only be called by the current owner. NOTE: Renouncing ownership will leave the contract without an owner, thereby removing any functionality that is only available to the owner."
      },
      "transferOwnership(address)": {
        "details": "Transfers ownership of the contract to a new account (`newOwner`). Can only be called by the current owner."
      }
    },
    "version": 1
  },
  "userdoc": {
    "kind": "user",
    "methods": {},
    "version": 1
  }
}