{
  "contractName": "SanwoV1Config",
  "abi": [
    {
      "anonymous": false,
      "inputs": [
        {
          "indexed": true,
          "internalType": "address",
          "name": "previousOwner",
          "type": "address"
        },
        {
          "indexed": true,
          "internalType": "address",
          "name": "newOwner",
          "type": "address"
        }
      ],
      "name": "OwnershipTransferred",
      "type": "event"
    },
    {
      "anonymous": false,
      "inputs": [
        {
          "indexed": true,
          "internalType": "address",
          "name": "pluginAddress",
          "type": "address"
        }
      ],
      "name": "PluginApproved",
      "type": "event"
    },
    {
      "anonymous": false,
      "inputs": [
        {
          "indexed": true,
          "internalType": "address",
          "name": "pluginAddress",
          "type": "address"
        }
      ],
      "name": "PluginDisapproved",
      "type": "event"
    },
    {
      "inputs": [
        {
          "internalType": "address",
          "name": "",
          "type": "address"
        }
      ],
      "name": "approvedPlugins",
      "outputs": [
        {
          "internalType": "address",
          "name": "",
          "type": "address"
        }
      ],
      "stateMutability": "view",
      "type": "function"
    },
    {
      "inputs": [],
      "name": "owner",
      "outputs": [
        {
          "internalType": "address",
          "name": "",
          "type": "address"
        }
      ],
      "stateMutability": "view",
      "type": "function"
    },
    {
      "inputs": [],
      "name": "renounceOwnership",
      "outputs": [],
      "stateMutability": "nonpayable",
      "type": "function"
    },
    {
      "inputs": [
        {
          "internalType": "address",
          "name": "newOwner",
          "type": "address"
        }
      ],
      "name": "transferOwnership",
      "outputs": [],
      "stateMutability": "nonpayable",
      "type": "function"
    },
    {
      "inputs": [
        {
          "internalType": "address",
          "name": "plugin",
          "type": "address"
        }
      ],
      "name": "approvePlugin",
      "outputs": [
        {
          "internalType": "bool",
          "name": "",
          "type": "bool"
        }
      ],
      "stateMutability": "nonpayable",
      "type": "function"
    },
    {
      "inputs": [
        {
          "internalType": "address",
          "name": "plugin",
          "type": "address"
        }
      ],
      "name": "disapprovePlugin",
      "outputs": [
        {
          "internalType": "bool",
          "name": "",
          "type": "bool"
        }
      ],
      "stateMutability": "nonpayable",
      "type": "function"
    }
  ],
  "bytecode": "0x608060405234801561001057600080fd5b5061002d61002261003260201b60201c565b61003a60201b60201c565b6100fe565b600033905090565b60008060009054906101000a900473ffffffffffffffffffffffffffffffffffffffff169050816000806101000a81548173ffffffffffffffffffffffffffffffffffffffff021916908373ffffffffffffffffffffffffffffffffffffffff1602179055508173ffffffffffffffffffffffffffffffffffffffff168173ffffffffffffffffffffffffffffffffffffffff167f8be0079c531659141344cd1fd0a4f28419497f9722a3daafe3b4186f6b6457e060405160405180910390a35050565b6108888061010d6000396000f3fe608060405234801561001057600080fd5b50600436106100625760003560e01c80632c2a5fb91461006757806338c74dd914610097578063715018a6146100c75780637445e0c3146100d15780638da5cb5b14610101578063f2fde38b1461011f575b600080fd5b610081600480360381019061007c9190610689565b61013b565b60405161008e9190610791565b60405180910390f35b6100b160048036038101906100ac9190610689565b610284565b6040516100be9190610791565b60405180910390f35b6100cf6103cc565b005b6100eb60048036038101906100e69190610689565b610454565b6040516100f89190610776565b60405180910390f35b610109610487565b6040516101169190610776565b60405180910390f35b61013960048036038101906101349190610689565b6104b0565b005b60006101456105a8565b73ffffffffffffffffffffffffffffffffffffffff16610163610487565b73ffffffffffffffffffffffffffffffffffffffff16146101b9576040517f08c379a00000000000000000000000000000000000000000000000000000000081526004016101b0906107cc565b60405180910390fd5b6000600160008473ffffffffffffffffffffffffffffffffffffffff1673ffffffffffffffffffffffffffffffffffffffff16815260200190815260200160002060006101000a81548173ffffffffffffffffffffffffffffffffffffffff021916908373ffffffffffffffffffffffffffffffffffffffff1602179055508173ffffffffffffffffffffffffffffffffffffffff167f15d23561abebaec7560019ff339247aa6abb29055f3af618edd661fbcbd4f79360405160405180910390a260019050919050565b600061028e6105a8565b73ffffffffffffffffffffffffffffffffffffffff166102ac610487565b73ffffffffffffffffffffffffffffffffffffffff1614610302576040517f08c379a00000000000000000000000000000000000000000000000000000000081526004016102f9906107cc565b60405180910390fd5b81600160008473ffffffffffffffffffffffffffffffffffffffff1673ffffffffffffffffffffffffffffffffffffffff16815260200190815260200160002060006101000a81548173ffffffffffffffffffffffffffffffffffffffff021916908373ffffffffffffffffffffffffffffffffffffffff1602179055508173ffffffffffffffffffffffffffffffffffffffff167f69e13d18ab160f517914aa34f2f6f25c80a32ecfbc1d08367becdf42b1ed226f60405160405180910390a260019050919050565b6103d46105a8565b73ffffffffffffffffffffffffffffffffffffffff166103f2610487565b73ffffffffffffffffffffffffffffffffffffffff1614610448576040517f08c379a000000000000000000000000000000000000000000000000000000000815260040161043f906107cc565b60405180910390fd5b61045260006105b0565b565b60016020528060005260406000206000915054906101000a900473ffffffffffffffffffffffffffffffffffffffff1681565b60008060009054906101000a900473ffffffffffffffffffffffffffffffffffffffff16905090565b6104b86105a8565b73ffffffffffffffffffffffffffffffffffffffff166104d6610487565b73ffffffffffffffffffffffffffffffffffffffff161461052c576040517f08c379a0000000000000000000000000000000000000000000000000000000008152600401610523906107cc565b60405180910390fd5b600073ffffffffffffffffffffffffffffffffffffffff168173ffffffffffffffffffffffffffffffffffffffff16141561059c576040517f08c379a0000000000000000000000000000000000000000000000000000000008152600401610593906107ac565b60405180910390fd5b6105a5816105b0565b50565b600033905090565b60008060009054906101000a900473ffffffffffffffffffffffffffffffffffffffff169050816000806101000a81548173ffffffffffffffffffffffffffffffffffffffff021916908373ffffffffffffffffffffffffffffffffffffffff1602179055508173ffffffffffffffffffffffffffffffffffffffff168173ffffffffffffffffffffffffffffffffffffffff167f8be0079c531659141344cd1fd0a4f28419497f9722a3daafe3b4186f6b6457e060405160405180910390a35050565b6000813590506106838161083b565b92915050565b60006020828403121561069b57600080fd5b60006106a984828501610674565b91505092915050565b6106bb816107fd565b82525050565b6106ca8161080f565b82525050565b60006106dd6026836107ec565b91507f4f776e61626c653a206e6577206f776e657220697320746865207a65726f206160008301527f64647265737300000000000000000000000000000000000000000000000000006020830152604082019050919050565b60006107436020836107ec565b91507f4f776e61626c653a2063616c6c6572206973206e6f7420746865206f776e65726000830152602082019050919050565b600060208201905061078b60008301846106b2565b92915050565b60006020820190506107a660008301846106c1565b92915050565b600060208201905081810360008301526107c5816106d0565b9050919050565b600060208201905081810360008301526107e581610736565b9050919050565b600082825260208201905092915050565b60006108088261081b565b9050919050565b60008115159050919050565b600073ffffffffffffffffffffffffffffffffffffffff82169050919050565b610844816107fd565b811461084f57600080fd5b5056fea2646970667358221220412baf2aaeddf9662cd26a682bab23a71728b62453a6a5f95f2d8ff2bb0575e964736f6c63430008000033",
  "immutableReferences": {},
  "source": "// SPDX-License-Identifier: MIT\r\n// This file has been copied and modified from the DePayV1 core repo\r\npragma solidity 0.8.0;\r\npragma abicoder v2;\r\n\r\nimport \"@openzeppelin/contracts/access/Ownable.sol\";\r\n\r\n// Prevents unwanted access to configuration in SanwoRouterV1\r\n// Potentially occuring through delegatecall(ing) plugins.\r\ncontract SanwoV1Config is Ownable {\r\n  \r\n  // List of approved plugins. Use approvePlugin to add new plugins.\r\n  mapping (address => address) public approvedPlugins;\r\n\r\n  // Approves the provided plugin.\r\n  function approvePlugin(address plugin) external onlyOwner returns(bool) {\r\n    approvedPlugins[plugin] = plugin;\r\n    emit PluginApproved(plugin);\r\n    return true;\r\n  }\r\n\r\n  // Event to emit newly approved plugin.\r\n  event PluginApproved(\r\n    address indexed pluginAddress\r\n  );\r\n\r\n  // Disapproves the provided plugin.\r\n  function disapprovePlugin(address plugin) external onlyOwner returns(bool) {\r\n    approvedPlugins[plugin] = address(0);\r\n    emit PluginDisapproved(plugin);\r\n    return true;\r\n  }\r\n\r\n  // Event to emit disapproved plugin.\r\n  event PluginDisapproved(\r\n    address indexed pluginAddress\r\n  );\r\n}\r\n",
  "sourcePath": "C:\\Users\\user\\Desktop\\Work\\sanwo-v1-core\\contracts\\SanwoV1Config.sol",
  "compiler": {
    "name": "solc",
    "version": "0.8.0+commit.c7dfd78e.Emscripten.clang"
  },
  "schemaVersion": "3.3.4",
  "updatedAt": "2021-07-13T23:00:56.211Z",
  "devdoc": {
    "kind": "dev",
    "methods": {
      "owner()": {
        "details": "Returns the address of the current owner."
      },
      "renounceOwnership()": {
        "details": "Leaves the contract without owner. It will not be possible to call `onlyOwner` functions anymore. Can only be called by the current owner. NOTE: Renouncing ownership will leave the contract without an owner, thereby removing any functionality that is only available to the owner."
      },
      "transferOwnership(address)": {
        "details": "Transfers ownership of the contract to a new account (`newOwner`). Can only be called by the current owner."
      }
    },
    "version": 1
  },
  "userdoc": {
    "kind": "user",
    "methods": {},
    "version": 1
  }
}