{
  "contractName": "SanwoRouterV1PaymentEvent01",
  "abi": [
    {
      "anonymous": false,
      "inputs": [
        {
          "indexed": true,
          "internalType": "address",
          "name": "sender",
          "type": "address"
        },
        {
          "indexed": true,
          "internalType": "address payable",
          "name": "receiver",
          "type": "address"
        }
      ],
      "name": "Payment",
      "type": "event"
    },
    {
      "inputs": [],
      "name": "delegate",
      "outputs": [
        {
          "internalType": "bool",
          "name": "",
          "type": "bool"
        }
      ],
      "stateMutability": "view",
      "type": "function"
    },
    {
      "inputs": [
        {
          "internalType": "address[]",
          "name": "path",
          "type": "address[]"
        },
        {
          "internalType": "uint256[]",
          "name": "amounts",
          "type": "uint256[]"
        },
        {
          "internalType": "address[]",
          "name": "addresses",
          "type": "address[]"
        },
        {
          "internalType": "string[]",
          "name": "data",
          "type": "string[]"
        }
      ],
      "name": "execute",
      "outputs": [
        {
          "internalType": "bool",
          "name": "",
          "type": "bool"
        }
      ],
      "stateMutability": "payable",
      "type": "function"
    }
  ],
  "bytecode": "0x60a060405260001515608090151560f81b81525034801561001f57600080fd5b5060805160f81c6104d661003e60003960006101a101526104d66000f3fe6080604052600436106100295760003560e01c8063b86949591461002e578063c89e43611461005e575b600080fd5b610048600480360381019061004391906102df565b610089565b60405161005591906103c3565b60405180910390f35b34801561006a57600080fd5b5061007361019f565b60405161008091906103c3565b60405180910390f35b6000848460018787905061009d91906103de565b8181106100d3577f4e487b7100000000000000000000000000000000000000000000000000000000600052603260045260246000fd5b90506020020160208101906100e891906102b6565b73ffffffffffffffffffffffffffffffffffffffff1685856000818110610138577f4e487b7100000000000000000000000000000000000000000000000000000000600052603260045260246000fd5b905060200201602081019061014d91906102b6565b73ffffffffffffffffffffffffffffffffffffffff167f36c4359614c37ef31afa649625f064e2ca57f0faa6dbc8ca2548356e23d944bc60405160405180910390a36001905098975050505050505050565b7f000000000000000000000000000000000000000000000000000000000000000081565b6000813590506101d281610489565b92915050565b60008083601f8401126101ea57600080fd5b8235905067ffffffffffffffff81111561020357600080fd5b60208301915083602082028301111561021b57600080fd5b9250929050565b60008083601f84011261023457600080fd5b8235905067ffffffffffffffff81111561024d57600080fd5b60208301915083602082028301111561026557600080fd5b9250929050565b60008083601f84011261027e57600080fd5b8235905067ffffffffffffffff81111561029757600080fd5b6020830191508360208202830111156102af57600080fd5b9250929050565b6000602082840312156102c857600080fd5b60006102d6848285016101c3565b91505092915050565b6000806000806000806000806080898b0312156102fb57600080fd5b600089013567ffffffffffffffff81111561031557600080fd5b6103218b828c016101d8565b9850985050602089013567ffffffffffffffff81111561034057600080fd5b61034c8b828c0161026c565b9650965050604089013567ffffffffffffffff81111561036b57600080fd5b6103778b828c016101d8565b9450945050606089013567ffffffffffffffff81111561039657600080fd5b6103a28b828c01610222565b92509250509295985092959890939650565b6103bd81610424565b82525050565b60006020820190506103d860008301846103b4565b92915050565b60006103e982610450565b91506103f483610450565b9250828210156104075761040661045a565b5b828203905092915050565b600061041d82610430565b9050919050565b60008115159050919050565b600073ffffffffffffffffffffffffffffffffffffffff82169050919050565b6000819050919050565b7f4e487b7100000000000000000000000000000000000000000000000000000000600052601160045260246000fd5b61049281610412565b811461049d57600080fd5b5056fea26469706673582212208e213702dfc2b5bd7a05ca64261ee309778b6d0e279289b8ad506525723eab0064736f6c63430008000033",
  "immutableReferences": {
    "593": [
      {
        "length": 32,
        "start": 417
      }
    ]
  },
  "source": "// SPDX-License-Identifier: MIT\r\n// This file has been copied and modified from the DePayV1 core \r\n\r\npragma solidity 0.8.0;\r\npragma abicoder v2;\r\n\r\nimport \"@openzeppelin/contracts/token/ERC20/IERC20.sol\";\r\nimport '../libraries/SafeToken.sol';\r\n\r\ncontract SanwoRouterV1PaymentEvent01 {\r\n\r\n  // The payment event.\r\n  event Payment(\r\n    address indexed sender,\r\n    address payable indexed receiver\r\n  );\r\n\r\n  // Indicates that this plugin does not require delegate call\r\n  bool public immutable delegate = false;\r\n\r\n  function execute(\r\n    address[] calldata path,\r\n    uint[] calldata amounts,\r\n    address[] calldata addresses,\r\n    string[] calldata data\r\n  ) external payable returns(bool) {\r\n    (path, data, amounts);\r\n    emit Payment(addresses[0], payable(addresses[addresses.length-1]));\r\n    return true;\r\n  }\r\n}\r\n",
  "sourcePath": "C:/Users/user/Desktop/Work/sanwo-v1-core/contracts/plugins/SanwoV1PaymentEvent01.sol",
  "compiler": {
    "name": "solc",
    "version": "0.8.0+commit.c7dfd78e.Emscripten.clang"
  },
  "schemaVersion": "3.3.4",
  "updatedAt": "2021-07-13T23:00:56.250Z",
  "devdoc": {
    "kind": "dev",
    "methods": {},
    "version": 1
  },
  "userdoc": {
    "kind": "user",
    "methods": {},
    "version": 1
  }
}