{
  "contractName": "SanwoV1PaymentPlugin01",
  "abi": [
    {
      "anonymous": false,
      "inputs": [
        {
          "indexed": true,
          "internalType": "address",
          "name": "sender",
          "type": "address"
        },
        {
          "indexed": true,
          "internalType": "address payable",
          "name": "receiver",
          "type": "address"
        }
      ],
      "name": "Payment",
      "type": "event"
    },
    {
      "inputs": [],
      "name": "ETH",
      "outputs": [
        {
          "internalType": "address",
          "name": "",
          "type": "address"
        }
      ],
      "stateMutability": "view",
      "type": "function"
    },
    {
      "inputs": [],
      "name": "delegate",
      "outputs": [
        {
          "internalType": "bool",
          "name": "",
          "type": "bool"
        }
      ],
      "stateMutability": "view",
      "type": "function"
    },
    {
      "inputs": [
        {
          "internalType": "address[]",
          "name": "path",
          "type": "address[]"
        },
        {
          "internalType": "uint256[]",
          "name": "amounts",
          "type": "uint256[]"
        },
        {
          "internalType": "address[]",
          "name": "addresses",
          "type": "address[]"
        },
        {
          "internalType": "string[]",
          "name": "data",
          "type": "string[]"
        }
      ],
      "name": "execute",
      "outputs": [
        {
          "internalType": "bool",
          "name": "",
          "type": "bool"
        }
      ],
      "stateMutability": "payable",
      "type": "function"
    }
  ],
  "bytecode": "0x60a060405260011515608090151560f81b81525034801561001f57600080fd5b5060805160f81c610e7a61003e600039600061033a0152610e7a6000f3fe6080604052600436106100345760003560e01c80638322fff214610039578063b869495914610064578063c89e436114610094575b600080fd5b34801561004557600080fd5b5061004e6100bf565b60405161005b9190610ade565b60405180910390f35b61007e600480360381019061007991906108a6565b6100d7565b60405161008b9190610b22565b60405180910390f35b3480156100a057600080fd5b506100a9610338565b6040516100b69190610b22565b60405180910390f35b73eeeeeeeeeeeeeeeeeeeeeeeeeeeeeeeeeeeeeeee81565b600073eeeeeeeeeeeeeeeeeeeeeeeeeeeeeeeeeeeeeeee73ffffffffffffffffffffffffffffffffffffffff16898960018c8c90506101169190610c11565b81811061014c577f4e487b7100000000000000000000000000000000000000000000000000000000600052603260045260246000fd5b9050602002016020810190610161919061087d565b73ffffffffffffffffffffffffffffffffffffffff1614156102285761022385856001888890506101929190610c11565b8181106101c8577f4e487b7100000000000000000000000000000000000000000000000000000000600052603260045260246000fd5b90506020020160208101906101dd919061087d565b88886001818110610217577f4e487b7100000000000000000000000000000000000000000000000000000000600052603260045260246000fd5b9050602002013561035c565b61032c565b61032b898960018c8c905061023d9190610c11565b818110610273577f4e487b7100000000000000000000000000000000000000000000000000000000600052603260045260246000fd5b9050602002016020810190610288919061087d565b868660018989905061029a9190610c11565b8181106102d0577f4e487b7100000000000000000000000000000000000000000000000000000000600052603260045260246000fd5b90506020020160208101906102e5919061087d565b8989600181811061031f577f4e487b7100000000000000000000000000000000000000000000000000000000600052603260045260246000fd5b90506020020135610482565b5b98975050505050505050565b7f000000000000000000000000000000000000000000000000000000000000000081565b60008273ffffffffffffffffffffffffffffffffffffffff1682600067ffffffffffffffff8111156103b7577f4e487b7100000000000000000000000000000000000000000000000000000000600052604160045260246000fd5b6040519080825280601f01601f1916602001820160405280156103e95781602001600182028036833780820191505090505b506040516103f79190610ac7565b60006040518083038185875af1925050503d8060008114610434576040519150601f19603f3d011682016040523d82523d6000602084013e610439565b606091505b505090508061047d576040517f08c379a000000000000000000000000000000000000000000000000000000000815260040161047490610b7f565b60405180910390fd5b505050565b6105038363a9059cbb60e01b84846040516024016104a1929190610af9565b604051602081830303815290604052907bffffffffffffffffffffffffffffffffffffffffffffffffffffffff19166020820180517bffffffffffffffffffffffffffffffffffffffffffffffffffffffff8381831617835250505050610508565b505050565b600061056a826040518060400160405280602081526020017f5361666545524332303a206c6f772d6c6576656c2063616c6c206661696c65648152508573ffffffffffffffffffffffffffffffffffffffff166105cf9092919063ffffffff16565b90506000815111156105ca578080602001905181019061058a919061097b565b6105c9576040517f08c379a00000000000000000000000000000000000000000000000000000000081526004016105c090610bbf565b60405180910390fd5b5b505050565b60606105de84846000856105e7565b90509392505050565b60608247101561062c576040517f08c379a000000000000000000000000000000000000000000000000000000000815260040161062390610b5f565b60405180910390fd5b610635856106fb565b610674576040517f08c379a000000000000000000000000000000000000000000000000000000000815260040161066b90610b9f565b60405180910390fd5b6000808673ffffffffffffffffffffffffffffffffffffffff16858760405161069d9190610ac7565b60006040518083038185875af1925050503d80600081146106da576040519150601f19603f3d011682016040523d82523d6000602084013e6106df565b606091505b50915091506106ef82828661070e565b92505050949350505050565b600080823b905060008111915050919050565b6060831561071e5782905061076e565b6000835111156107315782518084602001fd5b816040517f08c379a00000000000000000000000000000000000000000000000000000000081526004016107659190610b3d565b60405180910390fd5b9392505050565b60008135905061078481610e16565b92915050565b60008083601f84011261079c57600080fd5b8235905067ffffffffffffffff8111156107b557600080fd5b6020830191508360208202830111156107cd57600080fd5b9250929050565b60008083601f8401126107e657600080fd5b8235905067ffffffffffffffff8111156107ff57600080fd5b60208301915083602082028301111561081757600080fd5b9250929050565b60008083601f84011261083057600080fd5b8235905067ffffffffffffffff81111561084957600080fd5b60208301915083602082028301111561086157600080fd5b9250929050565b60008151905061087781610e2d565b92915050565b60006020828403121561088f57600080fd5b600061089d84828501610775565b91505092915050565b6000806000806000806000806080898b0312156108c257600080fd5b600089013567ffffffffffffffff8111156108dc57600080fd5b6108e88b828c0161078a565b9850985050602089013567ffffffffffffffff81111561090757600080fd5b6109138b828c0161081e565b9650965050604089013567ffffffffffffffff81111561093257600080fd5b61093e8b828c0161078a565b9450945050606089013567ffffffffffffffff81111561095d57600080fd5b6109698b828c016107d4565b92509250509295985092959890939650565b60006020828403121561098d57600080fd5b600061099b84828501610868565b91505092915050565b6109ad81610c45565b82525050565b6109bc81610c57565b82525050565b60006109cd82610bdf565b6109d78185610bf5565b93506109e7818560208601610c8d565b80840191505092915050565b60006109fe82610bea565b610a088185610c00565b9350610a18818560208601610c8d565b610a2181610cef565b840191505092915050565b6000610a39602683610c00565b9150610a4482610d00565b604082019050919050565b6000610a5c602c83610c00565b9150610a6782610d4f565b604082019050919050565b6000610a7f601d83610c00565b9150610a8a82610d9e565b602082019050919050565b6000610aa2602a83610c00565b9150610aad82610dc7565b604082019050919050565b610ac181610c83565b82525050565b6000610ad382846109c2565b915081905092915050565b6000602082019050610af360008301846109a4565b92915050565b6000604082019050610b0e60008301856109a4565b610b1b6020830184610ab8565b9392505050565b6000602082019050610b3760008301846109b3565b92915050565b60006020820190508181036000830152610b5781846109f3565b905092915050565b60006020820190508181036000830152610b7881610a2c565b9050919050565b60006020820190508181036000830152610b9881610a4f565b9050919050565b60006020820190508181036000830152610bb881610a72565b9050919050565b60006020820190508181036000830152610bd881610a95565b9050919050565b600081519050919050565b600081519050919050565b600081905092915050565b600082825260208201905092915050565b6000610c1c82610c83565b9150610c2783610c83565b925082821015610c3a57610c39610cc0565b5b828203905092915050565b6000610c5082610c63565b9050919050565b60008115159050919050565b600073ffffffffffffffffffffffffffffffffffffffff82169050919050565b6000819050919050565b60005b83811015610cab578082015181840152602081019050610c90565b83811115610cba576000848401525b50505050565b7f4e487b7100000000000000000000000000000000000000000000000000000000600052601160045260246000fd5b6000601f19601f8301169050919050565b7f416464726573733a20696e73756666696369656e742062616c616e636520666f60008201527f722063616c6c0000000000000000000000000000000000000000000000000000602082015250565b7f48656c7065723a3a736166655472616e736665724554483a204554482074726160008201527f6e73666572206661696c65640000000000000000000000000000000000000000602082015250565b7f416464726573733a2063616c6c20746f206e6f6e2d636f6e7472616374000000600082015250565b7f5361666545524332303a204552433230206f7065726174696f6e20646964206e60008201527f6f74207375636365656400000000000000000000000000000000000000000000602082015250565b610e1f81610c45565b8114610e2a57600080fd5b50565b610e3681610c57565b8114610e4157600080fd5b5056fea2646970667358221220e87e810073803e0936c17086dd43c165fb91901401a0aed03e735f2ce12ce00064736f6c63430008010033",
  "immutableReferences": {
    "125": [
      {
        "length": 32,
        "start": 826
      }
    ]
  },
  "source": "// SPDX-License-Identifier: MIT\n\npragma solidity 0.8.1;\npragma abicoder v2;\n\nimport \"@openzeppelin/contracts/token/ERC20/IERC20.sol\";\nimport \"@openzeppelin/contracts/token/ERC20/utils/SafeERC20.sol\";\nimport './libraries/SafeToken.sol';\n\ncontract SanwoV1PaymentPlugin01 {\n\n  // Address representating ETH (e.g. in payment routing paths)\n  address public constant ETH = 0xEeeeeEeeeEeEeeEeEeEeeEEEeeeeEeeeeeeeEEeE;\n\n  // Indicates that this plugin requires delegate call\n  bool public immutable delegate = true;\n\n  event Payment(\n    address indexed sender,\n    address payable indexed receiver\n  );\n\n  function execute(\n    address[] calldata path,\n    uint[] calldata amounts,\n    address[] calldata addresses,\n    string[] calldata data\n  ) external payable returns(bool) {\n\n    if(path[path.length-1] == ETH) {\n      SafeToken.safeTransferETH(payable(addresses[addresses.length-1]), amounts[1]);\n    } else {\n      SafeERC20.safeTransfer(IERC20(path[path.length-1]), payable(addresses[addresses.length-1]), amounts[1]);\n    }\n  }\n}\n",
  "sourcePath": "/home/nonseodion/Desktop/sanwo-v1-core/contracts/SanwoV1PaymentPlugin01.sol",
  "compiler": {
    "name": "solc",
    "version": "0.8.1+commit.df193b15.Emscripten.clang"
  },
  "schemaVersion": "3.3.4",
  "updatedAt": "2021-06-02T22:53:41.054Z",
  "devdoc": {
    "kind": "dev",
    "methods": {},
    "version": 1
  },
  "userdoc": {
    "kind": "user",
    "methods": {},
    "version": 1
  }
}