{
  "contractName": "SanwoV1PaymentPlugin01",
  "abi": [
    {
      "anonymous": false,
      "inputs": [
        {
          "indexed": true,
          "internalType": "address",
          "name": "sender",
          "type": "address"
        },
        {
          "indexed": true,
          "internalType": "address payable",
          "name": "receiver",
          "type": "address"
        }
      ],
      "name": "Payment",
      "type": "event"
    },
    {
      "inputs": [],
      "name": "ETH",
      "outputs": [
        {
          "internalType": "address",
          "name": "",
          "type": "address"
        }
      ],
      "stateMutability": "view",
      "type": "function"
    },
    {
      "inputs": [],
      "name": "delegate",
      "outputs": [
        {
          "internalType": "bool",
          "name": "",
          "type": "bool"
        }
      ],
      "stateMutability": "view",
      "type": "function"
    },
    {
      "inputs": [
        {
          "internalType": "address[]",
          "name": "path",
          "type": "address[]"
        },
        {
          "internalType": "uint256[]",
          "name": "amounts",
          "type": "uint256[]"
        },
        {
          "internalType": "address[]",
          "name": "addresses",
          "type": "address[]"
        },
        {
          "internalType": "string[]",
          "name": "data",
          "type": "string[]"
        }
      ],
      "name": "execute",
      "outputs": [
        {
          "internalType": "bool",
          "name": "",
          "type": "bool"
        }
      ],
      "stateMutability": "payable",
      "type": "function"
    }
  ],
  "bytecode": "0x60a060405260011515608090151560f81b81525034801561001f57600080fd5b5060805160f81c610e4e61003e600039600061033e0152610e4e6000f3fe6080604052600436106100345760003560e01c80638322fff214610039578063b869495914610064578063c89e436114610094575b600080fd5b34801561004557600080fd5b5061004e6100bf565b60405161005b9190610bc8565b60405180910390f35b61007e600480360381019061007991906108aa565b6100d7565b60405161008b9190610c0c565b60405180910390f35b3480156100a057600080fd5b506100a961033c565b6040516100b69190610c0c565b60405180910390f35b73eeeeeeeeeeeeeeeeeeeeeeeeeeeeeeeeeeeeeeee81565b600073eeeeeeeeeeeeeeeeeeeeeeeeeeeeeeeeeeeeeeee73ffffffffffffffffffffffffffffffffffffffff16898960018c8c90506101169190610cfb565b81811061014c577f4e487b7100000000000000000000000000000000000000000000000000000000600052603260045260246000fd5b90506020020160208101906101619190610881565b73ffffffffffffffffffffffffffffffffffffffff1614156102285761022385856001888890506101929190610cfb565b8181106101c8577f4e487b7100000000000000000000000000000000000000000000000000000000600052603260045260246000fd5b90506020020160208101906101dd9190610881565b88886001818110610217577f4e487b7100000000000000000000000000000000000000000000000000000000600052603260045260246000fd5b90506020020135610360565b61032c565b61032b898960018c8c905061023d9190610cfb565b818110610273577f4e487b7100000000000000000000000000000000000000000000000000000000600052603260045260246000fd5b90506020020160208101906102889190610881565b868660018989905061029a9190610cfb565b8181106102d0577f4e487b7100000000000000000000000000000000000000000000000000000000600052603260045260246000fd5b90506020020160208101906102e59190610881565b8989600181811061031f577f4e487b7100000000000000000000000000000000000000000000000000000000600052603260045260246000fd5b90506020020135610486565b5b6001905098975050505050505050565b7f000000000000000000000000000000000000000000000000000000000000000081565b60008273ffffffffffffffffffffffffffffffffffffffff1682600067ffffffffffffffff8111156103bb577f4e487b7100000000000000000000000000000000000000000000000000000000600052604160045260246000fd5b6040519080825280601f01601f1916602001820160405280156103ed5781602001600182028036833780820191505090505b506040516103fb9190610bb1565b60006040518083038185875af1925050503d8060008114610438576040519150601f19603f3d011682016040523d82523d6000602084013e61043d565b606091505b5050905080610481576040517f08c379a000000000000000000000000000000000000000000000000000000000815260040161047890610c69565b60405180910390fd5b505050565b6105078363a9059cbb60e01b84846040516024016104a5929190610be3565b604051602081830303815290604052907bffffffffffffffffffffffffffffffffffffffffffffffffffffffff19166020820180517bffffffffffffffffffffffffffffffffffffffffffffffffffffffff838183161783525050505061050c565b505050565b600061056e826040518060400160405280602081526020017f5361666545524332303a206c6f772d6c6576656c2063616c6c206661696c65648152508573ffffffffffffffffffffffffffffffffffffffff166105d39092919063ffffffff16565b90506000815111156105ce578080602001905181019061058e919061097f565b6105cd576040517f08c379a00000000000000000000000000000000000000000000000000000000081526004016105c490610ca9565b60405180910390fd5b5b505050565b60606105e284846000856105eb565b90509392505050565b606082471015610630576040517f08c379a000000000000000000000000000000000000000000000000000000000815260040161062790610c49565b60405180910390fd5b610639856106ff565b610678576040517f08c379a000000000000000000000000000000000000000000000000000000000815260040161066f90610c89565b60405180910390fd5b6000808673ffffffffffffffffffffffffffffffffffffffff1685876040516106a19190610bb1565b60006040518083038185875af1925050503d80600081146106de576040519150601f19603f3d011682016040523d82523d6000602084013e6106e3565b606091505b50915091506106f3828286610712565b92505050949350505050565b600080823b905060008111915050919050565b6060831561072257829050610772565b6000835111156107355782518084602001fd5b816040517f08c379a00000000000000000000000000000000000000000000000000000000081526004016107699190610c27565b60405180910390fd5b9392505050565b60008135905061078881610dea565b92915050565b60008083601f8401126107a057600080fd5b8235905067ffffffffffffffff8111156107b957600080fd5b6020830191508360208202830111156107d157600080fd5b9250929050565b60008083601f8401126107ea57600080fd5b8235905067ffffffffffffffff81111561080357600080fd5b60208301915083602082028301111561081b57600080fd5b9250929050565b60008083601f84011261083457600080fd5b8235905067ffffffffffffffff81111561084d57600080fd5b60208301915083602082028301111561086557600080fd5b9250929050565b60008151905061087b81610e01565b92915050565b60006020828403121561089357600080fd5b60006108a184828501610779565b91505092915050565b6000806000806000806000806080898b0312156108c657600080fd5b600089013567ffffffffffffffff8111156108e057600080fd5b6108ec8b828c0161078e565b9850985050602089013567ffffffffffffffff81111561090b57600080fd5b6109178b828c01610822565b9650965050604089013567ffffffffffffffff81111561093657600080fd5b6109428b828c0161078e565b9450945050606089013567ffffffffffffffff81111561096157600080fd5b61096d8b828c016107d8565b92509250509295985092959890939650565b60006020828403121561099157600080fd5b600061099f8482850161086c565b91505092915050565b6109b181610d2f565b82525050565b6109c081610d41565b82525050565b60006109d182610cc9565b6109db8185610cdf565b93506109eb818560208601610d77565b80840191505092915050565b6000610a0282610cd4565b610a0c8185610cea565b9350610a1c818560208601610d77565b610a2581610dd9565b840191505092915050565b6000610a3d602683610cea565b91507f416464726573733a20696e73756666696369656e742062616c616e636520666f60008301527f722063616c6c00000000000000000000000000000000000000000000000000006020830152604082019050919050565b6000610aa3602c83610cea565b91507f48656c7065723a3a736166655472616e736665724554483a204554482074726160008301527f6e73666572206661696c656400000000000000000000000000000000000000006020830152604082019050919050565b6000610b09601d83610cea565b91507f416464726573733a2063616c6c20746f206e6f6e2d636f6e74726163740000006000830152602082019050919050565b6000610b49602a83610cea565b91507f5361666545524332303a204552433230206f7065726174696f6e20646964206e60008301527f6f742073756363656564000000000000000000000000000000000000000000006020830152604082019050919050565b610bab81610d6d565b82525050565b6000610bbd82846109c6565b915081905092915050565b6000602082019050610bdd60008301846109a8565b92915050565b6000604082019050610bf860008301856109a8565b610c056020830184610ba2565b9392505050565b6000602082019050610c2160008301846109b7565b92915050565b60006020820190508181036000830152610c4181846109f7565b905092915050565b60006020820190508181036000830152610c6281610a30565b9050919050565b60006020820190508181036000830152610c8281610a96565b9050919050565b60006020820190508181036000830152610ca281610afc565b9050919050565b60006020820190508181036000830152610cc281610b3c565b9050919050565b600081519050919050565b600081519050919050565b600081905092915050565b600082825260208201905092915050565b6000610d0682610d6d565b9150610d1183610d6d565b925082821015610d2457610d23610daa565b5b828203905092915050565b6000610d3a82610d4d565b9050919050565b60008115159050919050565b600073ffffffffffffffffffffffffffffffffffffffff82169050919050565b6000819050919050565b60005b83811015610d95578082015181840152602081019050610d7a565b83811115610da4576000848401525b50505050565b7f4e487b7100000000000000000000000000000000000000000000000000000000600052601160045260246000fd5b6000601f19601f8301169050919050565b610df381610d2f565b8114610dfe57600080fd5b50565b610e0a81610d41565b8114610e1557600080fd5b5056fea2646970667358221220a96b0d928d7f68a0120e5dffe053fe457f3fed00b8b1fc58d87397ebbc06b86c64736f6c63430008000033",
  "immutableReferences": {
    "646": [
      {
        "length": 32,
        "start": 830
      }
    ]
  },
  "source": "// SPDX-License-Identifier: MIT\r\n// This file has been copied and modified from the DePayV1 core repo\r\n\r\npragma solidity 0.8.0;\r\npragma abicoder v2;\r\n\r\nimport \"@openzeppelin/contracts/token/ERC20/IERC20.sol\";\r\nimport \"@openzeppelin/contracts/token/ERC20/utils/SafeERC20.sol\";\r\nimport '../libraries/SafeToken.sol';\r\n\r\ncontract SanwoV1PaymentPlugin01 {\r\n\r\n  // Address representating ETH (e.g. in payment routing paths)\r\n  address public constant ETH = 0xEeeeeEeeeEeEeeEeEeEeeEEEeeeeEeeeeeeeEEeE;\r\n\r\n  // Indicates that this plugin requires delegate call\r\n  bool public immutable delegate = true;\r\n\r\n  event Payment(\r\n    address indexed sender,\r\n    address payable indexed receiver\r\n  );\r\n\r\n  function execute(\r\n    address[] calldata path,\r\n    uint[] calldata amounts,\r\n    address[] calldata addresses,\r\n    string[] calldata data\r\n  ) external payable returns(bool) {\r\n    (data);\r\n    if(path[path.length-1] == ETH) {\r\n      SafeToken.safeTransferETH(payable(addresses[addresses.length-1]), amounts[1]);\r\n    } else {\r\n      SafeERC20.safeTransfer(IERC20(path[path.length-1]), payable(addresses[addresses.length-1]), amounts[1]);\r\n    }\r\n\r\n    return true;\r\n  }\r\n}\r\n",
  "sourcePath": "C:/Users/user/Desktop/Work/sanwo-v1-core/contracts/plugins/SanwoV1PaymentPlugin01.sol",
  "compiler": {
    "name": "solc",
    "version": "0.8.0+commit.c7dfd78e.Emscripten.clang"
  },
  "schemaVersion": "3.3.4",
  "updatedAt": "2021-07-13T23:00:56.259Z",
  "devdoc": {
    "kind": "dev",
    "methods": {},
    "version": 1
  },
  "userdoc": {
    "kind": "user",
    "methods": {},
    "version": 1
  }
}